:040000006F10002756
:1000040000000000000000000207000004070000D8
:10001400000000006E12000000000000000000005C
:100024006E1200006E1200000000000000000000CC
:100034006E120000000000006E12000000000000BC
:100044006E1200006E1200006E1200006E120000AC
:100054006E1200006E1200006E1200006E1200009C
:100064006E1200006E1200006E1200006E1200008C
:100074006E1200006E1200006E1200006E1200007C
:100084006E1200006E1200006E1200006E1200006C
:10009400F20600006E1200006E1200006E120000E4
:1000A4006E1200006E1200006E1200006E1200004C
:1000B4006E1200006E1200006E1200006E1200003C
:1000C4006E1200006E1200006E1200006E1200002C
:1000D4006E1200006E1200006E1200006E1200001C
:1000E4006E1200006E1200006E1200006E1200000C
:1000F4006E1200006E1200006E1200006E120000FC
:10010400000000006E1200006E1200006E1200006B
:100114006E1200006E1200006E1200006E120000DB
:100124006E1200006E1200006E1200006E120000CB
:100134006E1200006E1200006E1200006E120000BB
:10014400FA0600006E1200006E1200006E1200002B
:100154006E120000880D00006E1200006E12000086
:100164006E1200006E1200006E1200006E1200008B
:100174006E1200006E1200006E1200006E1200007B
:100184006E1200006E1200006E1200006E1200006B
:100194006E1200006E1200006E1200006E1200005B
:1001A400000000000000000000000000000000004B
:0C01B4000000000000000000000000003F
:1001C000397101436EC619A0397141536AC866CAB4
:1001D00062CC5ECE19A0397101535AD056D252D496
:1001E0004ED64AD826DA22DC06DE3301614082820E
:1001F00041114AC026C222C406C68282B24D4101C4
:10020000024D924C224CB24B4101024B924A224A7F
:10021000B2494101024992442244B24041018280E4
:100220003D432A876373C3029377F700BDEFADE5C3
:10023000937606FF3D8ABA960CC34CC30CC74CC7D5
:100240004107E36BD7FE11E28280B306C3408A0602
:100250009702000096966780A6002307B700A306C2
:10026000B7002306B700A305B7002305B700A30412
:10027000B7002304B700A303B7002303B700A3020A
:10028000B7002302B700A301B7002301B700A30002
:10029000B7002300B700828093F5F50F9396850091
:1002A000D58D93960501D58D61B79396270097025A
:1002B000000096968682E78086FA9680C1171D8F89
:1002C0003E96E374C3F8A5B7EFF29FF2011102C6A0
:1002D00002C802CA02CC11C11D458547230BA100EB
:1002E000230CF100680085473ECEEF1080040561C5
:1002F00015B7EFF27FED1317250093870181BA97A9
:10030000804379712A8989452285EF10805805C577
:10031000B7040020FD59114AFD14B70A0080094BAB
:10032000B70B004081452285EF10205419E589451F
:100330002285EF1000634561E1B5300081452285DB
:1003400002CE02D002D202D402D6EF104049834737
:1003500001014ECE63964705B247E58FB3E75701DB
:10036000034711013ED063156701B3E777013ED023
:100370008347210121476373F700A147780813F6EB
:10038000F70F2302F102A302210323030102340029
:1003900081473A85850605076318F6002D2B59B766
:1003A000A24793F7F77F6DBFAC26850793F7F70F4A
:1003B0002CB7CDB7EFF23FE2411185452545EF104F
:1003C000B017854537050006EF10F018854537450D
:1003D0001D003714014002C202C402C6EF10C06EF5
:1003E00093070020E1490D494C00130504C07C82AD
:1003F0004EC64AC4EF10C0609307001093048004F7
:100400004C00130504C07C8226C6EF10605F89672C
:100410004C00130504C07C824EC64AC4231301005D
:10042000EF10005E85674C00130504C07C8226C671
:10043000EF10005D1D45EF00B07E8D64138981854E
:100440009385C416514613858185EF10B039138406
:10045000818251469385C416130549012300040087
:10046000EF105038A3000400410145B3854763EE07
:10047000A700EFF2FFD7D1473305F50293878185B7
:1004800051463E95EF10103671B38280854763E97F
:10049000A70093878182AA9788231375F50F82801E
:1004A00001458280854763E2A712EFF27FD40111F4
:1004B0002A847146AE840A8581459D33D14733072E
:1004C000F402938781858546BA97D843904388473D
:1004D0008C4B3A96D84711C6C147B28663F3C70022
:1004E000C146854711C52146AA876373A600A14767
:1004F0001146636FE60A11E30547054681C92E865A
:100500009305004063F4C5001306004093D5340002
:10051000054585892ECA2AC693F514002ACE8988F6
:10052000D1C80D4591E1054548817D17D881FD175A
:1005300013870181DC8293172400BA9703A907006F
:10054000FD1654824A857080EF00305B1D45EF0038
:10055000306D8A854A85EF0030702285B5339384EB
:10056000818229CC054689454A85EF106031930781
:10057000400219C09307000513D75700130707045B
:100580000546FD8B0A07B7E600E0B317F60036977D
:100590001CC3269410A09C20054593F7F70F91E704
:1005A00088301375F50F3335A000652E05619DB1B8
:1005B0001147A1B7BDD989454C8185BF9C3093F7C0
:1005C000F70FCDD30545093371BF8280854763EBB3
:1005D000A708EFF2FFC193878182AA979C23938497
:1005E000818293F7F70FB5CF1307400219C11307A4
:1005F00000059357570085467D8B938707063397F1
:10060000E6008A07B7E600E0B6972A8498C30F1081
:1006100000001317250093870181BA9703A90700EB
:10062000014689454A85EF10A0254A85EF00F04C28
:10063000B38784002380070011E81D45EF00505E5A
:100640009C3093F7F70F99C30545BD399C200545AC
:1006500093F7F70F91E788301375F50F3335A00046
:1006600009264DBE8280854763E2A7089387818271
:10067000AA979C232A87114593F7F70FB5CBEFF282
:100680003FB7DC41011102C602C802CA02CC02CE49
:1006900063D607049146230AD100939637008D82D2
:1006A00036C8F583898BA30AF1009C25A14663F324
:1006B000F600A14713F6F70F7400230BF1002E96F6
:1006C000AE87B6858506639FC700138501810A073B
:1006D0002A970843EF10E00405612DBE93F6F77FDB
:1006E00036C6C1B7C8278507A8A6E9BF11458280CD
:1006F00082800145FD3E730020300545DD3E7300DC
:10070000203001A0B707EFBE37E700E09387070866
:100710003CC701A0EFF2DFAD1384B1821C2003C7F8
:10072000C1828507FD8B6381E702AA850820D14736
:100730005146B387A702138501883E95EF10900AB2
:100740001C208507FD8B1CA0F1B4EFF27FAA9384D7
:10075000B1821384C18298201C2093F7F70F638520
:10076000E7020820D147B387A702138501883E9589
:10077000752B19E998201C2093F7F70F6386E70083
:100780001C208507FD8B1CA071B4A38501822386E4
:1007900001828280EFF2DFA5A385018201452386D5
:1007A00001822D3505451D35B5B495466303D50247
:1007B00063E7A60091466305D50205458280994608
:1007C000630FD502B946E31AD5FE8D6693860618E7
:1007D00029A0B70600209386860214C3314729A8B2
:1007E00093F5F50F0545636BB500B70600209386BA
:1007F000060014C3130780029AA3014582809386E2
:10080000818114C31147CDBFEFF29F9E2A84854793
:1008100013F5F50F630FF40011C809466304C40211
:100820001D466301C40405442285EDB2133447001C
:10083000E5BFE36BA4FECD47E3F8E7FEB6853D31A7
:100840000144DDB70544E361A4FE1D46E37EE6FCFA
:10085000984219E3A53BEDB70144E317F7FCCC42FE
:100860009131D9B70544E3E1A7FC0D46E37EE6FAF2
:1008700094423395A70083C7A1821375F50F1387A0
:10088000A18299C65D8D08A33335A000E5204DBF38
:100890001345F5FF7D8DC5BFEFF29F950111AA8429
:1008A000AA8551466800EF10E0738034854763E8FD
:1008B00087002285E13E01C5A68522856D3368004B
:1008C000913D61354D2905616FF0DF94EFF25F9244
:1008D000AD3D6FF03F94EFF2BF912D3DBD356FF010
:1008E0007F93EFF2FF9083C7E18237150140A14566
:1008F00093F7F70F1305058091E783C7D18293F72C
:10090000F70F89C7EF10001C6FF0DF90EF10401B4E
:10091000E5BFEFF2FF8D41118545114537140140C8
:1009200002C202C402C6EF10204113050480A14593
:10093000EF100019A1477C82C1473EC64C00894791
:10094000130504803EC4EF10A00BA3860182A145CD
:100950001305048023870182EF10801641016FF098
:100960007F8BEFF2FF883335A000A386A182953FED
:100970006FF05F8AEFF2DF873335A0002387A18213
:100980008D376FF03F89EFF2BF8641110945EF10B7
:1009900000211D2AEF10C053716513050520EF10CB
:1009A0002059B707002083A5870F2EC6EF10A0049B
:1009B000B2452A86373500001305C518EF10A06D23
:1009C000893FEFF03F9FD133E92C29260100FDBF7D
:1009D000B71702409843B706FFF04111136717009D
:1009E00098C3D84337060200758FD8C39843B7061B
:1009F000F7FEFD16758F98C39843B706FCFFFD16EA
:100A0000758F98C3D843B70601FFFD16758FD8C3FD
:100A10009843B70600ECFD16758F98C33707FF00A3
:100A200098C723A6070202C402C69843C166558F21
:100A300098C3B716024005679C42F18F3EC6A24795
:100A400085073EC4B24781E7A247E397E7FEB717A1
:100A500002409C431397E7006356070685473EC64E
:100A600032478547631EF704B7170240D843B706DD
:100A7000C1FFFD16D8C3D843D8C3D8431367074076
:100A8000D8C3D843758FD8C3D843C166558FD8C350
:100A90009843B7060001558F98C398439316670093
:100AA000E3DD06FED843B7160240719BD8C3D84396
:100AB00013672700D8C32147DC42B18BE39EE7FED2
:100AC0004101828002C669BFB7160240D842B7070B
:100AD00000201146318B9387870F6305C70021469D
:100AE0006308C70237177A001307072098C3371720
:100AF0000240584311839376F7003707002013070D
:100B000047033697142398433357D70098C38280FE
:100B1000D842D442416649833D8BF18E13062700AB
:100B200015CF3D47630FE6024147630FE602454795
:100B300081456313E6004146A1E23747024003279F
:100B40000780418B0DC737177A001307072033063C
:100B5000C70290C3C9DD9843058349BF8145494613
:100B6000E1BF85453546C9BF81453D46F1B73717D9
:100B70003D0013070790E1BF371502405855931603
:100B8000F700585563DF060411833D8B9306170069
:100B900037177A00130707203357D70298C35455E5
:100BA000A182BD8A8DE295463307D702058398C39B
:100BB00037170240585794433D8B050733D7E60259
:100BC00098C3984369B705456394A600E546E9BF15
:100BD0003D456396A600D1463387E602C9BF890624
:100BE000E5BF3D8B9306170037177A0013070720E0
:100BF0003357D702F1B737070400B7370240090768
:100C000023A8E74013070004239CE74813070020AC
:100C1000239EE7482390E74A138701B023AEE740BD
:100C2000138701B423AEE744138701D423A2E7421C
:100C3000239C074C0947238DE74CA38D074C239E2B
:100C4000074C238FE74CA381074EA3890182828042
:100C5000EFF26FD883D4C183130700041389C183D3
:100C6000130400046363970026844204418003AAAE
:100C700081839389818399C42286D285138501B0AB
:100C8000EF104036229A818C23A04901231099004D
:100C9000B7370240239C874C2147238DE74C6FF0E8
:100CA000CFD6EFF2EFD40545EF10C0150145EF1098
:100CB000E00F0545EF10E00D0545EF10C0100545AC
:100CC000EF1000120565854513050580EF10E0045F
:100CD0006FF04FD4EFF2CFD1373402409947230061
:100CE000F4402945EF1060218347044093040440F9
:100CF00093F7B70F2300F440C147A300F4409307D4
:100D000090022300F440930770022301F440E5357C
:100D1000834704403707200093E707012300F4408E
:100D2000B7E700E023A4E7106FF0CFCEEFF24FCC8F
:100D300083C71183054493F7F70F9DCB93843183C9
:100D40009C20054493F7F70F85E7AA855146138544
:100D500001B4EF102029B73702405147239EE74CDA
:100D600003C7E74D1377C70F238FE74C80A00144DB
:100D700022856FF02FCAB737024003C7374E13776B
:100D8000C70FA381E74E8280011122CE3734024083
:100D900026CC4ACA4EC81304044038243C34137786
:100DA000F70F937627006387061693F7F70F93F6EE
:100DB00007031306000213F7F7006391C60829EB37
:100DC00083D7C183B1C3693583C7518393F70706BE
:100DD00091EF83C741831547631AF70003C7F18278
:100DE000B73702401377F70FA381E740B7370240C8
:100DF00009472385E740938707407244E2445249FC
:100E0000C249056173002030A147A30DF40C6DBFEA
:100E10008547E31DF7FC8347E40D93F7C70F93E77E
:100E20002700230FF40C8347E40D93C78700230F9B
:100E3000F40CA3890182EFF07FA94DBFC5FA49EFF9
:100E400093F70704C5D7138751835E241423130631
:100E50000004C20793F60606C1836397C6061823EB
:100E600062076187634207061387E1831223B29703
:100E7000C207C1831EA393872184922363FAC6000D
:100E8000AD47230DF40CA30DF40C89473CA4B5B772
:100E90001A2396236363D70203C5418383D5418414
:100EA00003D601849A23938601B0EFF0FF95A14702
:100EB000231C040C230DF40C15BF8347B40D93C7FA
:100EC0008700A30DF40C1DB7B7370240239C074CD5
:100ED0002147238DE74C19BF8946E319D7F093F7D3
:100EE0000704E38507F05A248347340E93C787002D
:100EF000A301F40ECD47E3FBE7EE8347340E1385E1
:100F000001D493F7C70F93E72700A301F40EEFF086
:100F1000BF98E9BD9377070263850732A947230D80
:100F2000F40CA30DF40C938601B098221383518323
:100F30002300E300983203D826001385418318A1CB
:100F400003DE4600938541842390050113880184C4
:100F50002310C80103DE6600938621842390C60116
:100F6000239F01828346030023AC0182239E0182DA
:100F700093F60606130300041389C18393845183F7
:100F800013864183138421841387418493880184C9
:100F9000938701B093898183639266049C20E20762
:100FA000E18763DD071A08218E2103560800162009
:100FB0009307A100780002C623150100EFF0EFFEB1
:100FC00069ED1E20388563F4E7001E207C85B2475A
:100FD00023A0F9003C852310F90049A2942093F640
:100FE0000606C5EE1422AD4593F6F60F63E7D50A63
:100FF0008D658A0693850527AE96944282861E23C8
:101000009946A183FD1793F7F70F63E8F6088D66FD
:101010008A079386062AB6979C4382878D6783C486
:10102000C71F9387C71F1A20637597000620C20445
:10103000C18023A0F900231099001939B5A0B73752
:10104000024003C7874085460D8B93872183631D2C
:10105000D70098A38D671387C71D24333823938740
:10106000C71DA204D98CC1B7238007008D671387E1
:10107000C71B243338239387C71BA204D98C65B7B9
:101080001E23054793F7F70F638AE7029DC30947BD
:10109000638CE7020D47638FE702B73702402D47A5
:1010A000238DE74CA38DE74CB737024013070002AE
:1010B00089B383C4C1819387C181B5B78D6783C468
:1010C000C7219387C72185B78D6783C4472393873B
:1010D000472391BF8D6783C4472593874725A1B7D1
:1010E0008D6783C407219387072135BF83C7218379
:1010F00005476319F7028D679387C71BA433BC2389
:101100008D65A204DD8C370500201386E4FF9385EE
:10111000E51B13056506EF00F06CB7070020938709
:10112000470611B78D679387C71DA433BC238D6510
:10113000A204DD8C370500201386E4FF9385E51DAE
:1011400013056504EF00106AB70700209387470472
:10115000D9BD1E2393F7F707A387F1829C20E207EE
:10116000E187E3CC07EC1A20B737024093870740AA
:101170004207418379E3239C070C2147238DE70C29
:1011800025B703C7018398A323A0F9008547A1B51C
:101190001A23938701831377F70F98A39C23138750
:1011A000118393F7F70FB337F0001CA31C2393F7B9
:1011B000F70FCDD7EFF00FDE55B723800700E9B763
:1011C0002390070023A0F900894731B59C20894668
:1011D000FD8BE395D7F81A231377F70F41F303D765
:1011E0000800930610081377F7086314D702182233
:1011F0008D468947639AE600B737024093870740D8
:1012000083C7E70D93E7370037370240230FF74CCA
:10121000B1B7E314F7E818228D468147639AE600D8
:10122000B73702409387074083C7370E93E73700ED
:1012300037370240A301F74E15B72147A38DE70CBE
:10124000A5B59377170089CFA387018223880182F0
:10125000A3880182A3010400EFF0FF9985473DB107
:101260009377470099C3914715B138A479B601A087
:1012700097F1FF1F9381816817710020130181D8B6
:10128000172500001305850D97F5FF1F938585D75A
:101290001386818263FAC5008322050023A05500CE
:1012A00011059105E3EAC5FE13858182938541F41A
:1012B0006377B500232005001105E36DB5FEFD42FF
:1012C000739002BCAD4273904280B762000093827B
:1012D00082087390023097F2FFFF9382E2D293E28A
:1012E000320073905230EFF0AFEE97F2FFFF93822F
:1012F000C2697390123473002030EFE27FEFB7675A
:101300000040938707408545631DF50037050002BF
:10131000EF005026814537050002EF00B0256FE051
:101320007FEF37050004EF00F02481453705000406
:10133000EDB73767004013070740832607203C2599
:10134000054893E616002320D7208325C7213316AE
:10135000F8009346F6FFF58D232EB7204C25BDED02
:101360008325C720035825008E07F58D2326B72037
:101370006E21BA975A21C205B3E5050123A0B7240F
:101380000E2142074D8F23A2E7243835B76700406E
:10139000938707402DEB03A74720758F23A2E720F3
:1013A0001A25B76700409387074035E303A7472115
:1013B000F98E23AAD720184985476319F700B76724
:1013C000004003A7C761598E23AEC760B7670040CE
:1013D00003A70760799B23A0E7608280E39705FB62
:1013E0008325C720035825008E07D18D2326B720DB
:1013F0000E21BA975A21C205B3E5050123A0B724EF
:1014000042076E2141B703A74720518F41BF854650
:10141000E313D7FA03A74721518F23AAE72061BF1F
:10142000B767004003A70760F1769386160F13672E
:10143000170023A0E76003A707602205758F23A08C
:10144000E76003A70760598D23A0A76003A7076083
:10145000799B23A0E7608280EFE29FD92A842E89BE
:10146000592B11813D8971158D4763EDA716B7671B
:101470000040938707406313F404B7170240984B6A
:10148000B7060002558F98CB984BB70600FEFD16A5
:10149000758F98CB1C40F59B1CC01C4093E7170030
:1014A0001CC0C1675840058B19E3FD17E5FF5C4080
:1014B00013F717000DE701456FE0DFD5B777004060
:1014C00093870780E318F4FCB7170240984BB706E0
:1014D0000004558F98CB984BB70600FC4DBF3716CC
:1014E00002405442B707002083A7870FA182918A48
:1014F00081CA584221839376370009473317D700B2
:10150000B3D7E70237173D0013070790B3D7E702B9
:10151000370710C1FD17D98F5CCC1C40F99B1CC04C
:10152000C1675840058B19C3FD17E5FF5C40858BEB
:10153000D9F3B764004083A7C460054593E737003B
:1015400023A6F46023A0046423A2046423A40464F7
:1015500023A6046483A7C46193E7370023AEF46035
:1015600083A70460F99B23A0F4605D3D938704404A
:101570006313F41483A704583767004093E73700D8
:1015800023A0F4588327C7408D8BEDDF930780039A
:101590002326F740B7170240984BB7060002558F35
:1015A00098CB984BB70600FEFD16758F98CBB767A2
:1015B000004003A7076005451367170023A0E760F5
:1015C00003A7C7601367370023A6E76003A7C761B7
:1015D0001367370023AEE76003A70760799B23A05A
:1015E000E7603D3D1C40F59B1CC01C4093E7170085
:1015F0001CC0C1675840058B19E3FD17E5FF5C402F
:10160000858BE38A07EA0327890085476316F70E6F
:101610001C4093E707080327C9001CC085476311D6
:10162000F70E1C4093E70704032709011CC08547F8
:10163000631CF70C1C4093E70702032749011CC0F9
:1016400085476317F70C1C4093E7070103278901BF
:101650001CC085476311F70C1C4093E787000327E4
:10166000C9011CC08547631BF70A1C4093E747006C
:101670001CC08347290003473900FA076207D98F46
:10168000034749004207D98F034759005207D98FB2
:10169000035709007D17D98F5CCC1C40F99B1CC0F7
:1016A000C1675840058B19C3FD17E5FF4840134536
:1016B000F5FF058911B5B777004013870780E31858
:1016C000E4EE03A707981367370023A0E79837775E
:1016D00000408327C7808D8BEDDF9307800323268F
:1016E000F780B7170240984BB7060004558F98CB88
:1016F000984BB70600FC4DBD1C4093F7F7F721BF90
:101700001C4093F7F7FB0DB71C4093F7F7FD35B777
:101710001C40BD9B25BF1C40DD9B91B71C40ED9B31
:1017200081BF1C4513975700634E07081C4513974C
:101730004700634B07081C459146139737006351D8
:101740000708894693974600AA9703A70718058BB1
:1017500023A0E7189025883535EA984103A6071895
:101760005607498F518F23A0E718B8253D8BB8A5A0
:1017700003A64718419A23A2C71803A64718518FFA
:1017800023A2E718D025B8352206598ED83542074E
:10179000598EF8256207518F23A4E7189029F83550
:1017A0002206598E98394207598EB8296207518FFF
:1017B00023A6E71803A707181367170023A0E71845
:1017C000368582808146BDBF8546ADBFD84103A81E
:1017D00007180E07498F518F3367070169B7939731
:1017E0004500AA9703A7071B118B18A62DE703A78F
:1017F000071B558318C203A7071B098B18B603A73D
:10180000471B3D8B38A603A7471B218338BA03A784
:10181000871B38B603A7871B218358A603A7871BFE
:10182000418358B603A7871B618378A603A7C71B0C
:1018300078B603A7C71B218318AA03A7C71B418338
:1018400018BA83A7C71BE1833CAA99E95C4593E7D3
:1018500007025CC5828003A7071B0D8358C261BFC6
:101860001C4993E707021CC9828089E55C458D8B82
:101870003E85828005478147E39CE5FE1C49C5BF44
:101880005C4901C6DD8D4CC9828093C5F5FFFD8D95
:10189000DDBF5C49ED8F95C3930700046383F50AB0
:1018A00063ECB70291476386F50863EAB7008547A2
:1018B0006386F5068947638BF50601458280C1473B
:1018C000638DF50693070002638BF506A147E39647
:1018D000F5FE4845118185A093870580BDCF8567BA
:1018E0009387078063E0B702930700206381F506C2
:1018F000930700406380F50693070010E39FF5FA15
:10190000084D15A8C1676380F504B7070200638E10
:10191000F502A167E393F5FA484135A80845C16788
:10192000938717107D8D3335A000828048450D893F
:10193000DDBF48450D81058982800849CDBF084932
:10194000D5BF084941BF4841F5B7484161B7084D87
:101950000581D5B7084D0981F9BF084D13750507F5
:10196000D9B7930700106386F50663E7B702A1476E
:101970006388F50663E9B7000547638EE504114700
:101980006381E506828013070002638FE5049307F5
:101990000004638AF5048280938705808DCB856778
:1019A0009387078063EBB700930700206383F502FA
:1019B00093070040638FF5008280C1676388F5025A
:1019C000B70702006387F502A1676393F502232C32
:1019D0000500914729A8C167938717101CC582800D
:1019E000C1475CC58280C1471CC98280A1475CC1D8
:1019F0008280C147EDBFB7F7FF1F03A54770828004
:101A00009C4513F7070113F8F70001C7D841336865
:101A1000E8008E2113F7F50F39C318418146854E32
:101A20003D4F930F800293028004214E3396DE00D7
:101A3000B3F8C500631116039398260033131F01F2
:101A40001343F3FF3377E300B318180133E7E800DB
:101A5000639FF70550C98506E39AC6FD18C11307B1
:101A6000F00F6375B70454412146854E3D4F930FE7
:101A7000800293028004414EB398CE0033F71501E3
:101A80006392E8021317260001173313EF00134384
:101A9000F3FFB376D3003317E800D98E639DF701C7
:101AA000232A15010506E319C6FD54C18280E3947B
:101AB00057FA10C94DB7E39757FE23281501DDB734
:101AC0000CC982804CC98280B7070140635A050463
:101AD000DC4F93560501131805013707300013F644
:101AE000F60013580801B376E50063500506639BC2
:101AF000E602930606010D46B316D60093C6F6FF1E
:101B0000F58F99C9135755011377F73F120733170C
:101B1000E800D98F63570504370701405CCF828006
:101B2000DC4345BF1317B500635607008D46B396D7
:101B3000C600E9B7135755011377F73F120733175C
:101B4000E8001347F7FFF98F6DBF6390E602370691
:101B500001405442370700F17D17F98F758F58C245
:101B6000D5F1370701405CC382801317B500635C71
:101B700007008D46B396C60093C6F6FFFD8EB707E5
:101B8000000FD58FF1BF1357550112073317E80027
:101B90001347F7FF7D8FB707000FD98FD1B723A465
:101BA000A1848280371702405C439146B18B6385E4
:101BB000D700A1466382D706B7177A00938707201C
:101BC0001CC1371602405C42370700201307470844
:101BD0009183BD8BBA9794231C41B3D7D7005CC1C6
:101BE0005442A1829D8ABA969422B3D6D70014C5D6
:101BF0005442AD829D8A36971823B3D7E7005CC55F
:101C000058423983937637001387418036971823DB
:101C1000B3D7E7021CC982805C435843C166C983BD
:101C2000758FB7F6FF1F83A6C670BD8B8907139605
:101C3000160163480600C54601466392D702C947AC
:101C400039A88946638FD702BD46638ED702C14645
:101C5000638ED702C54601466393D700C1471DEF87
:101C60003747024003270780418B05C737177A00A3
:101C700013070720B307F7021CC121D61C41858337
:101C800081B701466DBF0546B547D1BF0146BD4787
:101C9000F9B737173D0013070790E9BFB7150240A2
:101CA000D8559316F700D85563DF060411833D8B92
:101CB0009306170037177A00130707203357D70208
:101CC00018C1D455A182BD8A8DE295463307D7024B
:101CD000058318C137170240585714413D8B05073B
:101CE00033D7E60218C1184171B785456394B60031
:101CF000E546E9BFBD456396B600D1463387E602A7
:101D0000C9BF8906E5BF3D8B9306170037177A00D8
:101D1000130707203357D702F1B799C53717024089
:101D20005C4B5D8D48CB8280B7170240D84B134582
:101D3000F5FF798DC8CB828099C5371702401C4FBB
:101D40005D8D08CF8280B7170240984F1345F5FF8D
:101D5000798D88CF828099C5371702405C4F5D8DA1
:101D600048CF8280B7170240D84F1345F5FF798DD1
:101D7000C8CF828099C5371702401C4B5D8D08CBB8
:101D80008280B7170240984B1345F5FF798D88CBB9
:101D90008280B7170240D857B70600F9FD16758F35
:101DA000D8D7D8576205598DC8D78280B717024057
:101DB000D857B70600F8FD16758FD8D7D8576E05D7
:101DC000598DC8D78280B7170240D857B70600D0C0
:101DD000FD16758FD8D7D8577205598DC8D7828010
:101DE00009C9371702405C57B7060040D58F5CD74A
:101DF0008280B7160240DC56370700C07D17F98F86
:101E0000DCD68280371702405C577E0586078583C3
:101E10005CD75C575D8D48D78280EFE26FBD162995
:101E2000F577FD17F58FF621DA257971D58F1EA983
:101E30005625FD779387379FF58FD6212A842EC6A6
:101E4000D58F9625D58FB625D58F5EA55E29C2077D
:101E5000C18393F7F7CFD98F5EA96808A133B7473D
:101E6000014093870780B245631EF402A25765477D
:101E7000B387E7029841930640060A07B3D7E70203
:101E800033D7D702B3F7D7021207920793872703F6
:101E9000B3D7D702BD8BD98FC207C1831EA44561BA
:101EA0006FE04FB79257E1B791C55E250967D98FAB
:101EB0005EA582805A25F977FD17F98FD5BF93F576
:101EC000F51F4EA182800A216D8D3335A0008280DE
:101ED000B707002083A7870F37177A00130707205B
:101EE000B3D7E70293F7F70F2387F1841307803EF8
:101EF000B387E7022396F1848280B7F700E0D843E6
:101F00008146799BD8C303C7E1843306A70290CBEF
:101F1000D4CB98431367070198C3984313671702FC
:101F200098C3D843058B75DF9843799B98C382800B
:101F3000EFE20FAC2A841165011185451105ED3BD7
:101F4000930700207C82371501408D473EC44C002A
:101F5000E147130505803EC6EFF09FAA22C837442B
:101F60000140B70708000C08130504803ECC02CAE4
:101F7000231E01005D358545130504803537056155
:101F80006FE04FA9EFE22FA5B7440140AE89328937
:101F9000014493840480634524014A856FE0EFA6E1
:101FA000930500042685053765DDB38789008385A1
:101FB000070026850504C205C1811137E9BF1387D3
:101FC00081801C43938641F43E95636BD500B786B0
:101FD00000209386068063E5A60008C33E858280C4
:101FE000FD57EDBFB3C7A5008D8B3307C50081E753
:101FF0008D4763EDC700AA87637EE50894218507B6
:102000008505A38FD7FEE3EBE7FE8280937635004C
:10201000AA8789CA942185078505A38FD7FE93F6E1
:102020003700C5BF9376C7FF138606FE63F0C70669
:1020300083A3050083A2450083AF850003AFC500DD
:1020400083AE050103AE450103A3850183A8C50145
:102050009385450223A0770003A8C5FF23A257005C
:1020600023A4F70123A6E70123A8D70123AAC701C8
:1020700023AC670023AE17019387470223AE07FF07
:1020800075B790419107910523AEC7FEE3EBD7FEEC
:10209000E3E6E7F6828039713EDA2ED232D436D6C4
:1020A0003AD842DC46DE9387C18022CC804326CAE0
:1020B00006CEAA8409C41C4C99E32285F9200C445D
:1020C00054102686228536C6A526F2406244D244A4
:1020D00021618280411122C406C62A844EA572A5C0
:1020E00023200500232205002324050023220506C2
:1020F00023280500232A0500232C050021468145BD
:102100001305C505EFE0CF919717000093876798F7
:102110005CD0971700009387879A1CD4971700000C
:102120009387679E5CD4971700009387C7A000D061
:102130001CD8B2402244410182809715000093854B
:1021400005D4A9A2411126C2130680069384F5FF87
:10215000B384C4024AC02E8922C406C693854407AC
:10216000592A2A8401CD2320050023222501310587
:1021700008C4138684068145EFE08F8A2285B24029
:10218000224492440249410182801C4DADE3411139
:1021900006C622C497070000938767FA1CD5938769
:1021A00001829C43232405042326050423280504D7
:1021B0006314F50085471CCD2A841D2848C022855C
:1021C000052808C422852D2048C448400146914571
:1021D000113708440546A545F53D48440946C9451B
:1021E000D53D85471CCCB24022444101828082808B
:1021F00041119387018226C284434AC006C69C4C83
:1022000022C42A8999E3268549379384840480442B
:10221000DC40FD1763D607009C40B9CF8440C5BFA2
:102220000317C40039E7C17785072322040623205A
:10223000040023220400232404005CC42328040097
:10224000232A0400232C0400214681451305C405DC
:10225000EFD01FFD232A0402232C040223240404AC
:10226000232604042285B2402244924402494101BB
:1022700082801304840671BF91454A85E13588C088
:1022800051FDB1472320F9000144E9BF797122D4FF
:102290004AD052CC56CA5AC85EC606D626D24ECEB0
:1022A0002A8AAE8A130485040149054BFD5B09ECBB
:1022B000B25022544A8592540259F249624AD24A93
:1022C000424BB24B45618280044483294400FD198E
:1022D00063D409000040E1BFDE24637BFB008397E9
:1022E000E40063877701A6855285829A3369A90045
:1022F00093848406E9BF011126CA93843500F198BE
:1023000006CE22CC4AC84EC6A104B14763F3F404FA
:10231000B14463E2B4042A89EF00304F938701850A
:1023200098433A8439E0938741859C4391E78145FE
:102330004A850D2F23AAA184A6854A852527FD5904
:1023400063193507B1472320F9004A85EF00104C87
:1023500029A0E3D004FCB1471CC10145F24062440E
:10236000D2444249B249056182801C40858F63CFC7
:102370000702AD4663F6F6001CC03E9404C031A0CF
:102380005C406313870223A8F1844A85EF0010485C
:102390001305B4009307440061993307F5405DDFEE
:1023A0003A94898F1CC05DBF5CC3C5B7228740408B
:1023B00095BF130435007198E30285FCB305A44072
:1023C0004A854D25E31C35FBB5BF1C46FD171CC6D1
:1023D00063D90700184E63C5E700A9476393F5006A
:1023E000A1AF1C422E851387170018C28CA38280D0
:1023F000011122CC26CA4AC84EC652C406CE2A892A
:10240000AE893284B304D6007D5A6314940001452A
:1024100001A80C204E864A854D3F0504E31745FF71
:10242000F2406244D2444249B249224A0561828064
:10243000357122CD26CB4AC94EC706CF52C556C3E9
:102440005AC1DEDEE2DCE6DAAA89AE84328936845D
:1024500001C51C4D91E3153B97170000938747E892
:102460006398F40C83A44900DE24A18BE5C79C4843
:10247000F5C393070002A304F1029307000302D2FD
:102480002305F10222C6930B5002971A0000938A8B
:102490002AE9054C294B4A841C2099C3639E770D79
:1024A000B30C2441638D0C00E6864A86A6854E85D2
:1024B0008137FD576301F51E9256E69636D21C20F1
:1024C000638B071CFD571309140002C802CE3ECAD5
:1024D00002CCA309010482D4834509001546568520
:1024E000EF00303113041900C24749E913F707011F
:1024F00009C713070002A309E10413F7870009C7FE
:102500001307B002A309E104834609001307A002E0
:10251000638EE606F2474A848146254618209305D5
:102520001400130707FD6376E60AADCA3ECEBDA0D0
:10253000971700009387C7DC6395F40083A4890094
:1025400025B7971700009387A7D7E39FF4F083A4DC
:10255000C90019BFA6854E85F12501DD7D55FA40DC
:102560006A44DA444A49BA492A4A9A4A0A4BF65B0B
:10257000665CD65C0D618280050439BF3305554128
:102580003315AC00C98F3EC82289B9B732479306CC
:102590004700184336C6634707023ACE1820930710
:1025A000E002631DF70418309307A002631BF702D3
:1025B000B2470904138747009C433AC663C1070228
:1025C0003ECA2DA83307E04093E727003ACE3EC825
:1025D000F1B7B387670385462E84BA9781B7FD5755
:1025E000C5B7050402CA81468147254618209305D0
:1025F0001400130707FD6376E606F9F20C200D467A
:1026000017150000130545D2EF00B01E11CD971726
:102610000000938767D11D8D93070004B397A7002F
:10262000424505045D8D2AC80C2019461715000087
:102630001305C5CF130914002304B102EF00701B6A
:1026400035C197E7FFFF9387E79B95E74247B2477E
:102650001377071009CF91073EC69257D2973ED203
:102660001DBDB387670385462E84BA9741B79D0782
:10267000E19BA107D5B7780097060000938686D71F
:1026800026860C084E8597000000E7000000FD57E5
:102690002A8AE314F5FCDE2493F70704E39007ECA1
:1026A000125575BD7800970600009386A6D426863D
:1026B0000C084E85012AE1BF797156CA9C49BA8A35
:1026C000984522D426D24ECE52CC06D64AD05AC8ED
:1026D0005EC6AA892E84B284368A63D3E700BA879D
:1026E0009CC00347340419C385079CC01C4093F762
:1026F000070281C79C4089079CC003290400137905
:102700006900631A0900130B9401FD5B5C44984057
:10271000998F634CF9041C408346340493F70702F5
:10272000B336D000A5EB13063404D2854E85829AC9
:10273000FD576303F5041C4011469840998B54449F
:1027400081446397C700B384E64063D304008144A7
:102750001C4418486354F700998FBE9401496904DA
:102760007D5B63982405014509A885465A86D28574
:102770004E85829A631E75017D55B2502254925443
:102780000259F249624AD24A424BB24B45618280B9
:102790000509ADBF3307D40013060003A301C70426
:1027A0000347540493871600A2978906A381E70480
:1027B0009DBF85462286D2854E85829AE30E65FBB3
:1027C000050945B7797122D426D24AD04ECE06D615
:1027D00052CC56CA5AC8B689942D930790063289AE
:1027E000AA842E8413863504638DF60263E2D7062D
:1027F000930780056385F61863EDD700638D062087
:1028000093073004638EF60A930A24042301D40448
:10281000C9A0930730066385F60A93074006E3953F
:10282000F6FE1C40084393F6070893054500C5C60D
:102830001C410CC363D807001307D002B307F04054
:10284000A301E404971600009386C6AE294765A845
:10285000930700076381F61663E5D7029307E00646
:102860006388F6189307F006E390F6FA0C401C43D1
:1028700013F80508138547006307080608C39C433F
:1028800085A893075007E383F6FE930780076388C4
:10289000F61293073007E399F6F61C43D0418145C1
:1028A0009386470014C383AA07005685992701C55C
:1028B0003305554148C05C401CC8A301040461A80D
:1028C0001C43930A2404938647009C4314C32301AA
:1028D000F4048547D5B793F607041C410CC3B9DA55
:1028E000C207C18781BF93F5050408C3C9D99E23D8
:1028F0001307F0066386E60E97160000938686A3FC
:102900002947A30104044C400CC463C505000840DA
:102910006D9908C099E3B28A89CDB28AB3F5E7020E
:10292000FD1AB6958C212380BA00B3D5E70263FF68
:10293000E70AA147631EF7001C40858B91CB5840E6
:102940001C4863C7E70093070003A38FFAFEFD1A34
:102950003306564110C84E87CA867000A285268568
:10296000A13B7D5A631D450B7D55B25022549254B4
:102970000259F249624AD24A424B45618280A3829F
:10298000D504971600009386E69A0C40084313F886
:1029900005081C411105630D080208C313F7150053
:1029A00001C793E505020CC04147A1FF0C4093F518
:1029B000F5FD0CC0B9B79C4193E707029CC1930792
:1029C0008007A302F404971600009386E69775BF6C
:1029D00013F8050408C3E30308FCC207C1837DBFE5
:1029E0009716000093860695214721BFAE873DB715
:1029F00094411C43CC4913F806081385470063062D
:102A0000080008C39C438CC339A008C393F606048E
:102A10009C43F5DA8EA323280400B28A2DBF144804
:102A20005686CA8526858299E30045F51C40898B28
:102A30008DE7B2474844E35AF5F23E853DB78546F7
:102A40005686CA8526858299E30065F3050A5C44AB
:102A50003247998FE345FAFEE9BF014A930A940190
:102A60007D5BF5B7411122C42A842E8523A001F491
:102A700006C6EFF0CFD4FD576317F500938701F436
:102A80009C4391C31CC0B240224441018280411149
:102A900022C42E848395E50006C6212D63490500D6
:102AA0007C48AA977CC8B2402244410182805E24BF
:102AB0007D777D17F98F5EA4FDB7DE25011122CC4D
:102AC00026CA4AC84EC606CE93F70710AA842E849B
:102AD0003289B68991C78395E50089460146092167
:102AE0005E247D777D17F98F5EA48315E400624430
:102AF000F240CE864A86B24942492685D2440561D3
:102B0000DDA8411122C42E848395E50006C6C92E96
:102B1000FD575A24631AF500FD77FD17F98F5EA45F
:102B2000B2402244410182808567D98F5EA468C883
:102B3000C5BF8395E500F5A2011122CC26CA4AC87B
:102B400006CE4EC6AA842E89328409C51C4D99E34F
:102B5000EFF0AFE397070000938787786317F406D9
:102B6000C0401C4C1CC45E24A18BC1C31C48B5CF03
:102B70001C4808409379F90F1379F90F1D8D5C48B3
:102B80006346F500A2852685CD2C25E51C44050568
:102B9000FD171CC41C401387170018C02380370181
:102BA0005C486388A7005E24858B81CBA9476316A8
:102BB000F900A2852685D1240DEDF24062444A85B4
:102BC000D2444249B2490561828097070000938749
:102BD00027736314F400804469B797070000938754
:102BE000276EE310F4F8C044ADBFA28526851D28EA
:102BF00041D17D59D9B7411122C42A842E85B2858D
:102C0000368623A001F406C6EFF0CFB7FD57631751
:102C1000F500938701F49C4391C31CC0B240224449
:102C20004101828041119387C18026C2844322C41E
:102C30004AC006C62A892E8491C49C4C81E7268509
:102C4000EFF0AFD49707000093878769631BF40206
:102C5000C0400317C40093170701C18393F6870090
:102C6000ADEA93F6070195EEA5472320F900136717
:102C700007045AA47D55B2402244924402494101BE
:102C80008280970700009387A7676314F40080444D
:102C9000C9B7970700009387A762E31CF4FAC04402
:102CA0004DBF918B9DC34C5889C9930744046384DD
:102CB000F5004A85A92E232A04025E24232204005B
:102CC00093F7B7FD5EA41C481CC05E2493E7870001
:102CD0005EA41C4899EB5E241307002093F7072895
:102CE0006385E700A2854A85AD2C5E2413F71700A3
:102CF0001DC35C4823240400B307F0401CCC1C48CF
:102D00000145B5FB8317C40013F707082DD793E7D8
:102D100007045EA485B7898B014791E3584818C41E
:102D2000F9BF411122C42A842E8523A001F406C6CE
:102D30000121FD576317F500938701F49C4391C36C
:102D40001CC0B240224441018280DE25011122CC08
:102D500026CA06CE4AC84EC613F78700AA842E8418
:102D600079EBD841634DE000B841634AE00001458A
:102D7000F2406244D2444249B249056182805854CB
:102D80007DD703A904009396370123A0040063DBD9
:102D9000060670485E24918B99C75C401D8E5C5876
:102DA00099C33C401D8E5C540C5081462685829709
:102DB000FD575A24631DF5009440F54763E8D70694
:102DC000B70740208507B3D7D700858BA5C31C481C
:102DD000232204001CC09317370163D80700FD5756
:102DE0006314F5009C4091E368C84C5823A024016B
:102DF000BDDD930744046384F5002685092C232A4E
:102E00000402B5B70C500146854626850297FD574A
:102E10002A86E311F5F89C40B5DF75476385E70026
:102E200059476393E70423A0240191B7136707046C
:102E30005AA47D5535BF83A90501E38A09F203A988
:102E400005008D8B23A0350133093941014791E3FA
:102E5000D84918C4E35D20F11C540C50CA864E8634
:102E6000268582976347A0005E2493E707045EA44B
:102E7000C9B7AA993309A940F1BF9C49A5C301115B
:102E800022CC06CE2A8419C51C4D89E72EC6EFF048
:102E9000CFAFB2459707000093878744639BF50047
:102EA0004C408397C50095C722856244F240056176
:102EB00069BD970700009387A7446394F5000C440D
:102EC000CDB7970700009387A73FE39CF5FC4C44E0
:102ED000C9BFF2406244014505618280014582809C
:102EE000411122C42A842E85B285368623A001F49E
:102EF00006C68D24FD576317F500938701F49C43A4
:102F000091C31CC0B2402244410182801971A6DAEB
:102F1000AE848395E500A2DC86DE328463DB0500A7
:102F2000DE2423A0060093F707089DE393070040E3
:102F300015A0300836C66522B246E34305FE724747
:102F4000BD67F98F7977BA9793B717009CC2F9BF1D
:102F5000930700041CC0F6506654D654014509611D
:102F60008280DE25011122CC06CE26CA4AC8898B72
:102F70002E8489CF930774041CC01CC885475CC885
:102F8000F2406244D24442490561828074003000BC
:102F9000AA84AD3FA2452A892685EFF0CFB519E96D
:102FA0008317C40013F7072061FFF19B93E7270005
:102FB0005EA4C9B797F7FFFF938767189CD45E2478
:102FC00008C008C893E707085EA4A2475CC8B247D8
:102FD00099CB8315E4002685052A11C55E24F19B53
:102FE00093E717005EA45E243369F90023162401D9
:102FF00041BF93F5F50F2A966314C5000145828001
:103000001C21E38EB7FE0505C5BF82808280CDC13D
:1030100083A7C5FF411122C406C626C21384C5FF7B
:1030200063D307003E94AA84CD37938701859C43E0
:1030300099EB2322040023A881842244B2402685F0
:1030400092444101E1B7637EF40014403307D40099
:103050006396E7009843DC43369718C05CC0E1BF35
:10306000BA87D84319C3E37DE4FE94433386D7007F
:10307000631F86001040B29694C33386D700E31EC8
:10308000C7FA10435843B29694C3D8C37DB763754B
:10309000C400B1479CC055B71040B306C4006316C6
:1030A000D70014435843B29614C058C0C0C371B778
:1030B0008280411122C42A842E85B285368623A0BF
:1030C00001F406C67128FD576317F500938701F4D4
:1030D0009C4391C31CC0B2402244410182804111F3
:1030E00022C42A842E85B28523A001F406C6B92005
:1030F000FD576317F500938701F49C4391C31CC0EF
:10310000B240224441018280411122C42A842E858A
:1031100023A001F406C60D28FD576317F500938719
:1031200001F49C4391C31CC0B240224441018280FF
:103130009307800523A0F1F47D55828093078005D5
:1031400023A0F1F47D5582809307800523A0F1F43C
:10315000014582809307800523A0F1F47D5582808C
:103160009307800523A0F1F47D55828006000000BE
:10317000060000000300000001000000090000003C
:10318000000000000000000000000000434833324F
:10319000563330352067735F75736220E280942068
:1031A000737973636C6B20257520487A2C204368F3
:1031B0006970494420253038780D0A000902200042
:1031C00001010080FA0904000002FFFFFF0007056B
:1031D00081024000000705020240000009022000B1
:1031E00001010080FA0904000002FFFFFF0007054B
:1031F0008102000200070502020002001201000223
:10320000FFFFFF40501D6F6000010102030100003D
:103210000A060002FFFFFF400100000016034D00F8
:10322000750073006C00650020004C0061006200B6
:1032300073000000220343004800330032005600B0
:103240003300300035002000670073005F00750018
:10325000730062001A03300030003000300030008C
:10326000300030003000300030003000310000000D
:10327000C0110000CC1100009A100000CC11000019
:103280009A10000052110000FE0F00009A1000007A
:103290008211000090110000BA1100005C110000C2
:1032A0001C1000003E100000801000009A1000006A
:1032B0009A100000E0100000EC1000000000000078
:1032C00000000000000000000000000000000000FE
:1032D00000000000000000000000000000000000EE
:1032E00000000000000000000000000000000000DE
:1032F00000000000000000000000000000000000CE
:1033000000000000000000000000000000000000BD
:10331000000000000000000000000000232D302B02
:1033200020000000686C4C00656667454647000059
:1033300030313233343536373839414243444546EB
:1033400000000000303132333435363738396162AD
:083350006364656600000000E3
:103358002B00000000A24A04010000001000000039
:103368000100000008000000040000000100000047
:10337800000400000100000000000001010000003E
:10338800010000000000000000000000010203042A
:1033980006070809090700000000000000000000F7
:1033A8000000000000000000000000000000000015
:1033B80000000000090700000000000000000000F5
:1033C80000000000000000000000000000000000F5
:1033D80000000000000000000102030401020304D1
:1033E8000607080900000000DC320000FC3200007B
:1033F800BC320000000000000000000000000000D7
:1034080000000000000000000000000000000000B4
:1034180000000000000000000000000000000000A4
:103428000000000000000000000000000000000094
:103438000000000000000000000000000000000084
:10344800000000000000000000449508020406087F
:103458003C08002094000020006400400068004000
:10346800000000000403090494000020000000008C
:00000001FF
